:020000040800F2
:1000000088070020990100089D0100089F01000851
:10001000A1010008A3010008A501000800000000DC
:10002000000000000000000000000000A701000820
:10003000A901000800000000AB010008AD010008A4
:10004000AF010008AF010008AF010008AF010008D0
:10005000AF010008AF01000837070008AF01000832
:10006000AF010008AF010008AF010008AF010008B0
:10007000AF010008AF010008AF010008AF010008A0
:10008000AF010008AF010008D7070008AF01000862
:10009000AF010008AF010008AF010008AF01000880
:1000A000AF010008AF010008AF010008AF01000870
:1000B000B3070008AF010008AF010008AF01000856
:1000C000AF010008AF010008AF010008AF01000850
:1000D000AF0100087B070008AF010008AF0100086E
:1000E000AF010008AF010008AF01000800F002F8FE
:1000F00000F041F80AA090E8000C82448344AAF181
:100100000107DA4501D100F036F8AFF2090EBAE87E
:100110000F0013F0010F18BFFB1A43F0010318473B
:100120006012000080120000103A24BF78C878C125
:10013000FAD8520724BF30C830C144BF04680C60ED
:10014000704700000023002400250026103A28BF35
:1001500078C1FBD8520728BF30C148BF0B60704739
:10016000752900F06385002070471FB501F07BF80A
:100170001FBD10B510BD00F023FE1146FFF7F5FFBF
:1001800000F08CFA00F041FE03B4FFF7F2FF03BC6D
:1001900000F084FB30BF000008480047FEE7FEE7A0
:1001A000FEE7FEE7FEE7FEE7FEE7FEE7FEE7FEE727
:1001B00003480449044A054B70470000ED0000085D
:1001C0008801002088070020880300208803002081
:1001D0004FF0E021096921F004014FF0E0221161A4
:1001E000C21700EB5272D2101F4B1A7019460978D1
:1001F0004FF47A7251431D4A1180704701461B4AE1
:1002000012884A434FF0E0235A6100229A6101228A
:100210001A6100BF4FF0E022106910F0010F02D008
:1002200010F4803FF6D000224FF0E0231A619A616B
:10023000704701460C4A12784A434FF0E0235A6156
:1002400000229A6101221A6100BF4FF0E02210697A
:1002500010F0010F02D010F4803FF6D000224FF0D2
:10026000E0231A619A61704700000020020000201C
:10027000FD48806940F00800FB49886108468069B4
:1002800040F004008861704710B5F748806940F07D
:100290000400F5498861022000F013FCF34800686F
:1002A000F3490840F149086008460068F1490843ED
:1002B000EE49086003220021012000F065FB0223C3
:1002C00006220121084600F011FB10BDE64AD26962
:1002D00042F00402E44BDA61E74A126822F00F02AE
:1002E000E54B1A601A46126842F004021A60DF4AAF
:1002F000126822F07042DD4B1A601A46126842F012
:1003000030421A60D94A0C32126842F08002D74B50
:100310000C331A60D94A1080121F1180D74A143A40
:10032000128842F4E042D54B143B1A801A461288D8
:1003300042F400621A80D14A0C3A128842F010024C
:10034000CE4B0C3B1A808022CC4B2C3B1A801A4699
:10035000128842F001021A807047C34AD26942F003
:100360000102C14BDA61C44A121F126822F0F00286
:10037000C14B1B1F1A601A46126842F0B0021A6085
:10038000BD4A0832126842F00202BB4B08331A60C1
:100390004FF0804290851185128B42F4E0424FF07D
:1003A00080431A831A46128B42F400621A831A465B
:1003B000128C42F010021A8480221A80D205128810
:1003C00042F001021A80704770B505460C46A648F7
:1003D000C06940F00400A449C861A8480580001F16
:1003E0000480A6482038008840F00100A349203945
:1003F00008800846008840F0400008809F482C385C
:10040000008840F001009D492C39088002231E22FB
:100410000321184600F06AFA70BD70B505460C4617
:100420009148C06940F002008F49C8619448058036
:10043000001F048002231D220421032000F056FA2D
:1004400070BD70B505460C468748C06940F0010094
:100450008549C861880485850485808940F001004C
:10046000890488810846808940F0400088810846D8
:10047000008840F00100088002231D220421184654
:1004800000F034FA70BD2DE9F05F05460E463001EC
:1004900000F00EFE81467B4905FB01F000F008FEEE
:1004A0008246494600F022FD0746384600F0E0FD4E
:1004B00084B2204600F0FCFD8346394600F0DFFEA2
:1004C00082464FF0834100F007FE814600F0D0FDE8
:1004D0008046240104EB080084B26348806940F040
:1004E0000400614988610846806940F48040886161
:1004F0006148006820F47F605F4908600846006832
:1005000040F40B6008605848C06840F48040564989
:10051000C8600846C06820F48040C8605A4804801B
:10052000001D008842F20C0108435749091D08804C
:100530000846008840F4807008800846008840F033
:1005400020000880022325220321084600F0CEF96E
:10055000BDE8F09F10B54448806940F0040042496E
:1005600088614A48444908604948091F08603E4874
:10057000806940F400703C4988610846C06840F4D6
:100580000070C8600846C06820F40070C860084663
:10059000406820F4404048600846406840F400400D
:1005A00048603C48006846F6200108433949086025
:1005B000081D006840F4B010091D08603548283057
:1005C000006840F440103349283108603148303029
:1005D0000068314908432F49303108602D480C30FC
:1005E00000686FF30B002B490C3108600846006867
:1005F00040F4406008600846006840F4C07008603D
:100600000846006840F4C04008600846006840F0B2
:10061000060008601F48001D006840F001001D49E9
:10062000091D08600846006840F00800086000BF27
:100630001848001D006810F0080FF9D11548001D7A
:10064000006840F004001349091D086000BF11480C
:10065000001D006810F0040FF9D1022312220321BB
:10066000042000F043F910BD00100240000C0140CE
:10067000F0FF0FFF08003000040801402C08004084
:100680002C04004040420F0008380140B448444464
:10069000B000404404240140400C020008B5092089
:1006A00000F024FAFFF7E4FD6548006820F0706070
:1006B000634908600846006840F0407008604820C0
:1006C000FFF786FD4FF416514820FFF7DCFE44F299
:1006D00050619620FFF7FAFD4FF4E1616420FFF7C7
:1006E0003CFE1E214FF6FF70FFF797FEFFF7CCFD93
:1006F000FFF730FF3420010708875249088019E0CE
:100700005148008800905148038851480288514858
:10071000018851A000F048FA52A000F045FA524872
:10072000006808B9012000E000204F4908604F48E8
:10073000FFF77FFDE4E710B50A20FFF77AFD4C488C
:100740000068012806D14B48008840F00100494963
:1007500008800EE04748008800F0FE004549088008
:10076000444824300088444908800020414924310D
:10077000088001204149086010BD4149098811F0F5
:10078000200F15D03E49091D0988C8B23D49097896
:1007900071B93D490A780978491C3B4B19703B49AE
:1007A000885419460978FF2902D100211A46117090
:1007B00070474FF08040008A10F0010F02D00020F7
:1007C000334908604FF08040008A20F001004FF06C
:1007D0008041088270472F480078012806D00228FF
:1007E00009D003280CD0042814D10EE02A48006850
:1007F000184908800EE0284800681549088009E07B
:10080000254800681149088004E0234800680E4923
:10081000088000BF00BF1F480078401C1D490870B9
:1008200008460078052801D10120087018480068A2
:1008300008B9012000E00020154908607047000059
:10084000000C014038080040100000200E0000207D
:100850000C0000200A000020257509257509257562
:10086000092575000A00000098812142A086010038
:1008700000812142000400400600002014040140D1
:10088000003801400400002005000020280000205E
:1008900094812142080000204C240140014600BF01
:1008A000704700BF044A128812F0400FFAD0C2B25B
:1008B000014B1B1D1A80704700380140AC4A0A40AA
:1008C0000243AC4B1A6070470146072323EA01023A
:1008D0001202A84B1B1D18684FF6FF031840A64BC9
:1008E00018431043A34B1B1D186070472DE9F047B8
:1008F0008046894614461D462046E11704EB917157
:100900004FEAA10AE11704EB91718910A4EB810170
:10091000CFB2042000EBC700C7B22846FFF7D4FFD0
:10092000C5F1040008FA00F60F20284100EA09008A
:10093000064306F00F06202C0CDA904800684FF0B2
:10094000010101FA04F140EA01004FF0E021C1F891
:1009500000010DE08A480068A4F120014FF0010277
:1009600002FA01F240EA02004FF0E021C1F804016E
:10097000844850F82A0006FA07F140EA010081494C
:1009800041F82A00BDE8F08770B504460B46CE1743
:1009900001EB9676B010CE1701EB9676B610A1EB70
:1009A0008606B606350E784B9B6943F00103764EFA
:1009B000B3614FEAB63353F820300F26AE40B3434D
:1009C000724E46F82030334653F8203004FA05F6CC
:1009D00033436E4E46F820306D4B1E6801238B402A
:1009E0001E436B4B1E6012F0010F08D0684B0C3396
:1009F0001B6801268E403343654E0C36336012F07F
:100A0000020F08D0624B08331B6801268E40334327
:100A10005F4E0836336070BD00B500205A4908614A
:100A2000C8601420486100208861C86108460068D9
:100A300040F00100086008464068564908405249A5
:100A4000486008460068544908404F490860084615
:100A5000006820F4802008600846406820F4FE000A
:100A600048600020886000214FF00060FFF726FFFB
:100A700000BD10B53F480830006840F004003D4913
:100A8000083108604048C06940F080503E49C86164
:100A90004248406840F48070404948600846006819
:100AA00040F0040008600846006840F0020008605A
:100AB000FFF770FB10BD3048001D2E49091D08606E
:100AC000704701464906304A926942F001022E4BB6
:100AD0009A612E4A083A526822F0E0622B4B083B9A
:100AE0005A601A4652680A435A60704730B5044645
:100AF0000025FFF791FF2448006840F48030224928
:100B0000086000BF20480068400CFBD04FF48060B4
:100B10001D494860A01EC4B20846406840EA8440AF
:100B200048600846406840F4803048601C480068CF
:100B300040F032001A4908601348006840F08070A5
:100B40001149086000BF10480068400EFBD00E48F5
:100B5000406840F002000C49486005E00A484068DF
:100B6000C0F3870505F00305022DF7D130BD000065
:100B700080FFFF1F08ED00E00000FA0500E100E043
:100B800004E100E000E400E0001002400800014041
:100B9000000401400000FFF8FFFFF6FE0070004077
:100BA00000200240704700000FB4044910B503AAAA
:100BB000029800F0D7F810BC5DF814FB2400002068
:100BC0002DE9F04104460E4600200AE0E168204687
:100BD000884738B3252806D0D4E901219047206AF8
:100BE000401C2062F2E7E1682046002788470500A4
:100BF00018D0A5F14100192802D820354FF400671C
:100C00003246294620462760FFF7AAFA40B101285C
:100C100004D0F61D26F007060836D7E7361DD5E7BF
:100C20002846D9E7206ABDE8F08100002DE9F041AF
:100C30000746002510687529394616A411D0AFF370
:100C40000080002803DAC0F1000013A407E039682F
:100C50008A0701D511A402E0490704D510A4012593
:100C600001E0AFF3008000210A2307F1240607E02A
:100C7000B0FBF3F203FB1200303070541046491CF5
:100C80000028F5D12B4622463846BDE8F04100F059
:100C90000DB80000000000002D0000002B00000037
:100CA0002000000070477047704770472DE9F047FB
:100CB0000D4604469246994600F1240801688806CC
:100CC00004D5E06921F01001216000E00120A84274
:100CD00002DDA0EB050700E00027A16907EB050294
:100CE00002EB0900A1EB0000A0612068C00602D45D
:100CF0002046AFF30080002608E0D4E901211AF86D
:100D000006009047206A401C761C20624E45F4DBAA
:100D10002068C0060AD52046AFF3008006E0D4E97B
:100D2000012130209047206A401C2062381EA7F124
:100D30000107F4DC07E0D4E9012118F80500904729
:100D4000206A401C2062281EA5F10105F3DC204624
:100D5000AFF300802068000602D50220BDE8F087CE
:100D60000120FBE7074B70B50C467B4400F011F8FF
:100D70000546204600F020F810B14FF0FF3070BD5E
:100D8000284670BD35FBFFFF01694A1C02610878E7
:100D9000704700B58FB0CDE90131002105910549BB
:100DA0007944CDE9031011466846FFF709FF0FB0FB
:100DB00000BD0000E5FFFFFFC06800F08000704745
:100DC000754600F029F8AE4605006946534620F006
:100DD0000700854618B020B5FFF7EAF9BDE82040C6
:100DE0004FF000064FF000074FF000084FF0000BE7
:100DF00021F00701AC46ACE8C009ACE8C009ACE89A
:100E0000C009ACE8C0098D4670470446AFF30080C6
:100E10002046FFF7B9F9000000487047280100207C
:100E2000004870472C01002090EA010F48BF81F074
:100E3000004100F13682421A3CBF801A89184FEAFD
:100E4000D0524FF07F4C1CEA410FA2EBD15318BF98
:100E50009CEA026F00F03B804FF0004C4CEA00200F
:100E60004CEA012121FA03FC10EB0C0C1ED202F11A
:100E7000FF325FEA1C2040EBC25038BF70471CF0C5
:100E80007F0F4FEA400C18BFBCF17F4F38BF70474F
:100E9000C3F12003994008BF20F00100BCF17F4F4F
:100EA00038BF7047A0F1C04000F0E4B94FEA3C0001
:100EB000000A40EBC25028BF1CF0FF0F4FEA400C65
:100EC000E6D018BFBCF17F4F38BF7047EAE79CEA15
:100ED000026F05D010EA5C0F08BF00F000407047B9
:100EE00010B500F07AF900BF64FBBE3E4FF47F0CF2
:100EF0001CEAD0121EBF1CEAD11392EA0C0F93EA2F
:100F00000C0F00F0858090EA010F48BF42F4807218
:100F100040F4000C41F400002CF07F4120F07F40B1
:100F200000B58142A2EB03020FF2081CACEB504E5D
:100F3000C0F100009EF800E04FEA4E0E00FB0EFCF0
:100F400038BF49004FEA2C1C02F5FA020CFB0EF3E5
:100F50004FEACE1E4FEA112C4FEAC1210EEB635E21
:100F600042EB22420EFB0CFC4FEA1C5300FB031128
:100F70004FEA112C4FEA01310EFB0CFC4FEADC4C1E
:100F800000FB0C11C14228BF09184CEB03335DF87C
:100F900004EB10EB410143EBC250B2F57C0F38BFBC
:100FA000704729D512F0F00F1CBF00F1C04000F0CF
:100FB00000407047008182838485868788898B8C76
:100FC0008D8E8F919293959697999A9C9D9FA0A2B2
:100FD000A3A5A7A8AAACAEB0B2B3B5B7B9BCBEC002
:100FE000C2C5C7C9CCCED1D4D7D9DCDFE2E6E9ECA3
:100FF000F0F3F7FAFE0000004FEA400C0CF1807CA1
:10100000BCF17E4F28BF7047B0F1C04000F032B94C
:1010100090EA010F0CEAD11348BF42F48072624596
:1010200038BF634507D213F47F0F16D080EA010062
:1010300000F00040704710B500F0CFF8097EFC3E8C
:1010400000F005B880EA010000F00040704780EA37
:10105000010000F0004000F00DB912F47F0F04BF52
:101060000248704780EA010000F004B90000C07F28
:10107000C10DD1F19E0206DB4FEA002343F000438D
:1010800023FA02F07047004207D54FEA4001B1F160
:10109000FE4F02D24FF00000704710B500F09DF8EF
:1010A00049922480002070476FEA200070470000BA
:1010B000B0FA80F310FA03F2C3F19D030AD0D90508
:1010C00001EB1220530638BF704700F1010008BF42
:1010D00020F00100704700004FF47F0C1CEAD01292
:1010E0001EBF1CEAD11392EA0C0F93EA0C0F00F01A
:1010F000478090EA010F48BF42F480724FF0004CE5
:101100004CEA00204CEA012102EB0302A0FB011390
:10111000A2F50002002918BF43F001035B0028BFBD
:101120004FEA330342EB22425FEA132C4CEBC250EE
:101130002EBFBCEB436FB2F57C0F70474FEA036CD8
:10114000BCF1004F08BF20F00100B2F57C0F38BFA2
:1011500070470BD582F0FF0212F5803FC8BF704781
:1011600000F1C040D8BF00F00040704700F5000C0F
:101170005FEA4C0C48BF7047B0F1C04000F07AB84D
:1011800090EA010F0CEAD11348BF42F48072624525
:1011900038BF634504D280EA010000F00040704788
:1011A00010B500F01AF800BF8900013E00F007B842
:1011B00000F009B85FEA410C5FEA1C6C08D080EAD5
:1011C000010000F057B85FEA400C5FEA1C6CF6D1F2
:1011D0004FF00040A0F5800070470EF1020E2EF097
:1011E000030E5EF8044B244204D44FEA4102B2F1EC
:1011F0007F4F11D84FEA4003B3F17F4F0CD80ED187
:101200004FEAD07CB2F17F4F0CEB4C0C0CF1020C8E
:1012100008BF4CEBD17C04E04FF0080C01E04FEA32
:10122000D17C0CEB4C0324FA03F404F00704B4F172
:10123000040C06D20EEB840CBDE810404CF0010CFF
:101240006047DFE80CF0070802024FF00040A0F50D
:10125000800010BD0846420018BFD2F1807288BFDE
:1012600000F0004010BD10B5FFF7DAFD4FF00001AF
:10127000016010BDFF2141EAD050C005704780F0E9
:10128000004090EA010F7FF5D6AD81F0004100F0FB
:1012900008B8000090EA010F48BF81F000413FF517
:1012A000CAAD421A04D882F00042A0EB02001144F9
:1012B0004FEAD0524FF07F4C1CEA410FA2EBD153C2
:1012C00018BF9CEA026F4AD04FF0004C4CEA002055
:1012D0004CEA012121FA03FCB0EB0C0C0FD412F004
:1012E000FE0F36D05FEA4C001DD5001240EBC25015
:1012F00038BF70471CF03F0F18BF70470BE0A2F1DA
:1013000001025FEA1C2040EBC25038BF70471CF05E
:101310007F0F18BF7047C3F12003994014BF401ED0
:1013200020F00100704780084FEA122308BF704781
:10133000B0FA80FCA2EB0C02CCF1280C60FA0CF0A5
:1013400093EA122F04BF00EBC25070474FEAC370FC
:101350007047130A5FEADC1008BF7047F6E79CEAA3
:10136000026F04D010EA5C0F08BF0020704710B570
:10137000FFF733FF40DFF63E81F00040704700008A
:10138000A013000800000020280000002801000829
:10139000C81300082800002060070000440100086E
:1013A000000000000000557801620000000000000D
:1013B000000000000000000000000000000000002D
:0813C000000000000000000025
:04000005080000ED02
:00000001FF
