:020000040800F2
:100000006807002091010008950100089701000889
:10001000990100089B0100089D01000800000000F4
:100020000000000000000000000000009F01000828
:10003000A101000800000000A3010008A5010008BC
:10004000A7010008A7010008A7010008A7010008F0
:10005000A7010008A7010008A7010008A7010008E0
:10006000A7010008A7010008A7010008A7010008D0
:10007000A7010008A7010008A7010008A7010008C0
:10008000A7010008A7010008A7010008A7010008B0
:10009000A7010008A7010008A7010008A7010008A0
:1000A000A7010008A7010008A7010008A701000890
:1000B000A7010008A7010008D5040008A70100084F
:1000C000A7010008A7010008A7010008A701000870
:1000D000A70100089B040008A7010008A701000869
:1000E000A7010008A7010008A701000800F002F816
:1000F00000F03CF80AA090E8000C82448344AAF186
:100100000107DA4501D100F031F8AFF2090EBAE883
:100110000F0013F0010F18BFFB1A43F0010318473B
:10012000D40C0000F40C0000103A24BF78C878C149
:10013000FAD8520724BF30C830C144BF04680C60ED
:10014000704700000023002400250026103A28BF35
:1001500078C1FBD8520728BF30C148BF0B60704739
:100160001FB500F0BAFD1FBD10B510BD00F063FB58
:100170001146FFF7F5FF00F067F900F081FB03B4CB
:10018000FFF7F2FF03BC00F0CDF9000030BF000024
:1001900008480047FEE7FEE7FEE7FEE7FEE7FEE76A
:1001A000FEE7FEE7FEE7FEE703480449044A054B85
:1001B00070470000ED00000868010020680700207B
:1001C00068030020680300204FF0E021096921F056
:1001D00004014FF0E0221161C21700EB5272D210FD
:1001E0001F4B1A70194609784FF47A7251431D4A11
:1001F0001180704701461B4A12884A434FF0E023A2
:100200005A6100229A6101221A6100BF4FF0E02278
:10021000106910F0010F02D010F4803FF6D00022D8
:100220004FF0E0231A619A61704701460C4A127838
:100230004A434FF0E0235A6100229A6101221A6179
:1002400000BF4FF0E022106910F0010F02D010F44F
:10025000803FF6D000224FF0E0231A619A61704788
:1002600000000020020000207148806940F0080072
:100270006F4988610846806940F0040088617047D2
:100280006B4AD26942F00402694BDA61694A12682A
:1002900022F00F02674B1A601A46126842F00402FD
:1002A0001A60654A126822F07042634B1A601A465F
:1002B000126842F030421A605F4A0C32126842F013
:1002C00080025D4B0C331A605C4A1080121F118053
:1002D0005A4A143A128842F4E042584B143B1A80AE
:1002E0001A46128842F400621A80544A0C3A128864
:1002F00042F01002514B0C3B1A8080224F4B2C3B9A
:100300001A801A46128842F001021A80704770B5AE
:1003100005460C464648C06940F004004449C8619F
:1003200046480580001F048044482038008840F07B
:1003300001004249203908800846008840F040000A
:1003400008803E482C38008840F001003B492C3999
:10035000088002231E220321012000F00BF970BD4A
:100360002DE9F05F05460E46300100F0DBFB8146CB
:10037000334905FB01F000F0D5FB8246494600F009
:10038000EFFA0746384600F0ADFB84B2204600F095
:10039000C9FB8346394600F0ACFC82464FF08341EE
:1003A00000F0D4FB814600F09DFB8046240104EB65
:1003B000080084B21E48806940F004001C4988612E
:1003C0000846806940F4804088611A48006820F43B
:1003D0007F60184908600846006840F40B600860B8
:1003E0001348C06840F480401149C8600846C0689E
:1003F00020F48040C86013480480001D008842F249
:100400000C0108430F49091D08800846008840F484
:10041000807008800846008840F020000880022391
:1004200025220321084600F0A5F8BDE8F09F000052
:100430000010024004080140000C01402C0800405C
:1004400040420F0008380140092000F093F9FFF7FF
:100450000BFF4820FFF7B8FE4FF416514820FFF776
:100460007FFF44F250616420FFF70AFF64202449B3
:10047000088011E02248008822490880224800684C
:1004800008B9012000E000201F49086000BF1F4894
:10049000008810F0400FFAD0ECE71C49098811F0F1
:1004A000200F16D017490988C8B215490880184985
:1004B000097871B917490A780978491C154B1970E0
:1004C0001549885419460978FF2902D100211A4696
:1004D000117070470A482838008810F0010F07D0C3
:1004E0000E48006808B9012000E000200B490860B0
:1004F0000B48008820F0010009490880704700007F
:1005000038080040043801409881214200380140F9
:100510000400002005000020080000209C0121426A
:1005200010080040014600BF704700BF044A12880F
:1005300012F0400FFAD0C2B2014B1B1D1A80704757
:1005400000380140AC4A0A400243AC4B1A60704785
:100550000146072323EA01021202A84B1B1D18685B
:100560004FF6FF031840A64B18431043A34B1B1D27
:10057000186070472DE9F0478046894614461D46AD
:100580002046E11704EB91714FEAA10AE11704EB51
:1005900091718910A4EB8101CFB2042000EBC70058
:1005A000C7B22846FFF7D4FFC5F1040008FA00F6E9
:1005B0000F20284100EA0900064306F00F06202C10
:1005C0000CDA904800684FF0010101FA04F140EAAA
:1005D00001004FF0E021C1F800010DE08A480068F9
:1005E000A4F120014FF0010202FA01F240EA0200F8
:1005F0004FF0E021C1F80401844850F82A0006FABF
:1006000007F140EA0100814941F82A00BDE8F0877E
:1006100070B504460B46CE1701EB9676B010CE1798
:1006200001EB9676B610A1EB8606B606350E784B32
:100630009B6943F00103764EB3614FEAB63353F83A
:1006400020300F26AE40B343724E46F8203033467A
:1006500053F8203004FA05F633436E4E46F8203046
:100660006D4B1E6801238B401E436B4B1E6012F0C6
:10067000010F08D0684B0C331B6801268E403343B2
:10068000654E0C36336012F0020F08D0624B08330F
:100690001B6801268E4033435F4E0836336070BDC1
:1006A00000B500205A490861C86014204861002044
:1006B0008861C8610846006840F00100086008468B
:1006C0004068564908405249486008460068544905
:1006D00008404F4908600846006820F48020086000
:1006E0000846406820F4FE00486000208860002131
:1006F0004FF00060FFF726FF00BD10B53F480830FF
:10070000006840F004003D49083108604048C06975
:1007100040F080503E49C8614248406840F48070D3
:10072000404948600846006840F0040008600846F8
:10073000006840F002000860FFF728FD10BD304857
:10074000001D2E49091D0860704701464906304AC0
:10075000926942F001022E4B9A612E4A083A526881
:1007600022F0E0622B4B083B5A601A4652680A435B
:100770005A60704730B504460025FFF791FF2448C2
:10078000006840F480302249086000BF20480068BB
:10079000400CFBD04FF480601D494860A01EC4B2DD
:1007A0000846406840EA844048600846406840F493
:1007B000803048601C48006840F032001A490860E8
:1007C0001348006840F080701149086000BF10486D
:1007D0000068400EFBD00E48406840F002000C4913
:1007E000486005E00A484068C0F3870505F0030546
:1007F000022DF7D130BD000080FFFF1F08ED00E0A3
:100800000000FA0500E100E004E100E000E400E09F
:100810000010024008000140000401400000FFF801
:10082000FFFFF6FE00700040002002407047704756
:10083000704770477047754600F028F8AE460500CF
:100840006946534620F00700854618B020B5FFF7EB
:10085000ABFCBDE820404FF000064FF000074FF022
:1008600000084FF0000B21F00701AC46ACE8C009CE
:10087000ACE8C009ACE8C009ACE8C0098D467047D7
:100880000446AFF300802046FFF779FC004870472C
:1008900008010020004870470C01002090EA010F79
:1008A00048BF81F0004100F13682421A3CBF801AF5
:1008B00089184FEAD0524FF07F4C1CEA410FA2EB4F
:1008C000D15318BF9CEA026F00F03B804FF0004C00
:1008D0004CEA00204CEA012121FA03FC10EB0C0C3D
:1008E0001ED202F1FF325FEA1C2040EBC25038BF3B
:1008F00070471CF07F0F4FEA400C18BFBCF17F4FD0
:1009000038BF7047C3F12003994008BF20F00100B1
:10091000BCF17F4F38BF7047A0F1C04000F0E4B990
:100920004FEA3C00000A40EBC25028BF1CF0FF0F0A
:100930004FEA400CE6D018BFBCF17F4F38BF70477C
:10094000EAE79CEA026F05D010EA5C0F08BF00F0EE
:100950000040704710B500F07AF900BF64FBBE3E5E
:100960004FF47F0C1CEAD0121EBF1CEAD11392EA8E
:100970000C0F93EA0C0F00F0858090EA010F48BF3E
:1009800042F4807240F4000C41F400002CF07F41EE
:1009900020F07F4000B58142A2EB03020FF2081C59
:1009A000ACEB504EC0F100009EF800E04FEA4E0E56
:1009B00000FB0EFC38BF49004FEA2C1C02F5FA027E
:1009C0000CFB0EF34FEACE1E4FEA112C4FEAC12169
:1009D0000EEB635E42EB22420EFB0CFC4FEA1C5313
:1009E00000FB03114FEA112C4FEA01310EFB0CFC06
:1009F0004FEADC4C00FB0C11C14228BF09184CEB3C
:100A000003335DF804EB10EB410143EBC250B2F548
:100A10007C0F38BF704729D512F0F00F1CBF00F1D2
:100A2000C04000F000407047008182838485868743
:100A300088898B8C8D8E8F919293959697999A9C9D
:100A40009D9FA0A2A3A5A7A8AAACAEB0B2B3B5B70C
:100A5000B9BCBEC0C2C5C7C9CCCED1D4D7D9DCDFE2
:100A6000E2E6E9ECF0F3F7FAFE0000004FEA400C92
:100A70000CF1807CBCF17E4F28BF7047B0F1C040C4
:100A800000F032B990EA010F0CEAD11348BF42F4EA
:100A90008072624538BF634507D213F47F0F16D0CA
:100AA00080EA010000F00040704710B500F0CFF878
:100AB000097EFC3E00F005B880EA010000F000402D
:100AC000704780EA010000F0004000F00DB912F418
:100AD0007F0F04BF0248704780EA010000F004B9AC
:100AE0000000C07FC10DD1F19E0206DB4FEA00235A
:100AF00043F0004323FA02F07047004207D54FEA63
:100B00004001B1F1FE4F02D24FF00000704710B526
:100B100000F09DF849922480002070476FEA200081
:100B200070470000B0FA80F310FA03F2C3F19D039E
:100B30000AD0D90501EB1220530638BF704700F1E7
:100B4000010008BF20F00100704700004FF47F0C47
:100B50001CEAD0121EBF1CEAD11392EA0C0F93EAD2
:100B60000C0F00F0478090EA010F48BF42F48072FA
:100B70004FF0004C4CEA00204CEA012102EB03024A
:100B8000A0FB0113A2F50002002918BF43F00103E6
:100B90005B0028BF4FEA330342EB22425FEA132C8B
:100BA0004CEBC2502EBFBCEB436FB2F57C0F7047CD
:100BB0004FEA036CBCF1004F08BF20F00100B2F512
:100BC0007C0F38BF70470BD582F0FF0212F5803FD3
:100BD000C8BF704700F1C040D8BF00F00040704768
:100BE00000F5000C5FEA4C0C48BF7047B0F1C04004
:100BF00000F07AB890EA010F0CEAD11348BF42F432
:100C00008072624538BF634504D280EA010000F07B
:100C10000040704710B500F01AF800BF8900013E8F
:100C200000F007B800F009B85FEA410C5FEA1C6CFD
:100C300008D080EA010000F057B85FEA400C5FEA94
:100C40001C6CF6D14FF00040A0F5800070470EF10B
:100C5000020E2EF0030E5EF8044B244204D44FEA39
:100C60004102B2F17F4F11D84FEA4003B3F17F4FF9
:100C70000CD80ED14FEAD07CB2F17F4F0CEB4C0C6C
:100C80000CF1020C08BF4CEBD17C04E04FF0080CD7
:100C900001E04FEAD17C0CEB4C0324FA03F404F09E
:100CA0000704B4F1040C06D20EEB840CBDE810402E
:100CB0004CF0010C6047DFE80CF0070802024FF02F
:100CC0000040A0F5800010BD0846420018BFD2F1D8
:100CD000807288BF00F0004010BD10B5FFF7DAFD4C
:100CE0004FF00001016010BDFF2141EAD050C00566
:100CF000704780F0004090EA010F7FF5D6AD81F09B
:100D0000004100F008B8000090EA010F48BF81F0F0
:100D100000413FF5CAAD421A04D882F00042A0EB70
:100D2000020011444FEAD0524FF07F4C1CEA410FB1
:100D3000A2EBD15318BF9CEA026F4AD04FF0004C8F
:100D40004CEA00204CEA012121FA03FCB0EB0C0C28
:100D50000FD412F0FE0F36D05FEA4C001DD5001202
:100D600040EBC25038BF70471CF03F0F18BF7047B0
:100D70000BE0A2F101025FEA1C2040EBC25038BF39
:100D800070471CF07F0F18BF7047C3F120039940D4
:100D900014BF401E20F00100704780084FEA122364
:100DA00008BF7047B0FA80FCA2EB0C02CCF1280C13
:100DB00060FA0CF093EA122F04BF00EBC2507047A8
:100DC0004FEAC3707047130A5FEADC1008BF704730
:100DD000F6E79CEA026F04D010EA5C0F08BF00201F
:100DE000704710B5FFF733FF40DFF63E81F000405B
:100DF00070470000140E00080000002008000000EA
:100E0000280100081C0E00080800002060070000F0
:0C0E100044010008000000000000000089
:04000005080000ED02
:00000001FF
