:020000040800F2
:1000000070070020990100089D0100089F01000869
:10001000A1010008A3010008A501000800000000DC
:10002000000000000000000000000000A701000820
:10003000A901000800000000AB010008AD010008A4
:10004000AF010008AF010008AF010008AF010008D0
:10005000AF010008AF01000843050008AF01000828
:10006000AF010008AF010008AF010008AF010008B0
:10007000AF010008AF010008AF010008AF010008A0
:10008000AF010008AF010008AF010008AF01000890
:10009000AF010008AF010008AF010008AF01000880
:1000A000AF010008AF010008AF010008AF01000870
:1000B000AF010008AF010008C9050008AF01000842
:1000C000AF010008AF010008AF010008AF01000850
:1000D000AF0100088D050008AF010008AF0100085E
:1000E000AF010008AF010008AF01000800F002F8FE
:1000F00000F041F80AA090E8000C82448344AAF181
:100100000107DA4501D100F036F8AFF2090EBAE87E
:100110000F0013F0010F18BFFB1A43F0010318473B
:10012000F80F000018100000103A24BF78C878C1FA
:10013000FAD8520724BF30C830C144BF04680C60ED
:10014000704700000023002400250026103A28BF35
:1001500078C1FBD8520728BF30C148BF0B60704739
:10016000752900F02F84002070471FB500F047FF6D
:100170001FBD10B510BD00F0EFFC1146FFF7F5FFF5
:1001800000F09CF900F00DFD03B4FFF7F2FF03BC93
:1001900000F050FA30BF000008480047FEE7FEE7D5
:1001A000FEE7FEE7FEE7FEE7FEE7FEE7FEE7FEE727
:1001B00003480449044A054B70470000ED0000085D
:1001C00070010020700700207003002070030020E1
:1001D0004FF0E021096921F004014FF0E0221161A4
:1001E000C21700EB5272D2101F4B1A7019460978D1
:1001F0004FF47A7251431D4A1180704701461B4AE1
:1002000012884A434FF0E0235A6100229A6101228A
:100210001A6100BF4FF0E022106910F0010F02D008
:1002200010F4803FF6D000224FF0E0231A619A616B
:10023000704701460C4A12784A434FF0E0235A6156
:1002400000229A6101221A6100BF4FF0E02210697A
:1002500010F0010F02D010F4803FF6D000224FF0D2
:10026000E0231A619A61704700000020020000201C
:100270008B48806940F00800894988610846806998
:1002800040F004008861704710B58548806940F0EF
:10029000040083498861022000F0DFFA8148006889
:1002A00020F00F007F4908600846006840F0080011
:1002B000086003220021012000F032FA0223062206
:1002C0001946012000F0DEF910BD754AD26942F0EE
:1002D0000402734BDA61744A126822F00F02724B07
:1002E0001A601A46126842F004021A606D4A1268D7
:1002F00022F070426B4B1A601A46126842F030428C
:100300001A60684A0C32126842F08002654B0C3366
:100310001A60664A1080121F1180644A143A1288CB
:1003200042F4E042614B143B1A801A46128842F4B0
:1003300000621A805D4A0C3A128842F010025B4B50
:100340000C3B1A808022594B2C3B1A801A4612888B
:1003500042F001021A80704770B505460C465048BD
:10036000C06940F004004E49C86150480580001F34
:1003700004804E482038008840F001004B49203965
:1003800008800846008840F04000088047482C3824
:10039000008840F0010045492C39088002231E22C4
:1003A0000321184600F06EF970BD70B505460C4685
:1003B0003B48C06940F002003949C8613C480580AB
:1003C000001F048002231D220421184600F05AF960
:1003D00070BD2DE9F05F05460E46300100F034FD9A
:1003E0008146344905FB01F000F02EFD8246494666
:1003F00000F048FC0746384600F006FD84B220466F
:1004000000F022FD8346394600F005FE82464FF09B
:10041000834100F02DFD814600F0F6FC804624016A
:1004200004EB080084B21E48806940F004001C49B7
:1004300088610846806940F4804088611A480068F5
:1004400020F47F60184908600846006840F40B609B
:1004500008601348C06840F480401149C8600846ED
:10046000C06820F48040C86013480480001D0088E4
:1004700042F20C0108431049091D08800846008813
:1004800040F4807008800846008840F02000088012
:10049000022325220321084600F0F4F8BDE8F09F6E
:1004A00000100240000C0140040801402C080040EC
:1004B0002C04004040420F0008380140092000F0A1
:1004C000E1F9FFF7D5FE4B48006820F0706049491C
:1004D00008600846006840F0407008604820FFF758
:1004E00077FE4FF416514820FFF773FF44F2506136
:1004F0006420FFF7EAFE1E214FF6FF70FFF755FF5D
:10050000FFF7C2FE64203C49088019E03B4801889F
:100510003BA000F015FA3BA000F012FA00BF3A48E9
:10052000008810F0400FFAD03848006808B9012060
:1005300000E00020354908604FF06400FFF75EFEE0
:10054000E4E710B50A20FFF774FE3148006801287F
:1005500006D13048008840F001002E49088011E0A3
:100560002C48008800F0FE002A49088029482430E1
:100570000088224908800020264924310880612013
:100580002549087001202549086010BD1E490988C9
:1005900011F0200F17D01C49091D0988C8B216494F
:1005A00008801F49097871B91E490A780978491CE1
:1005B0001C4B19701C49885419460978FF2902D12F
:1005C00000211A46117070470B482838008810F037
:1005D000010F07D01548006808B9012000E000208D
:1005E000124908601248008820F001001049088074
:1005F00070470000000C0140380800400600002051
:10060000257500000A000000003801409881214251
:100610000081214200040040080000201404014031
:100620000400002005000020100000209C01214251
:1006300010080040014600BF704700BF044A1288FE
:1006400012F0400FFAD0C2B2014B1B1D1A80704746
:1006500000380140AC4A0A400243AC4B1A60704774
:100660000146072323EA01021202A84B1B1D18684A
:100670004FF6FF031840A64B18431043A34B1B1D16
:10068000186070472DE9F0478046894614461D469C
:100690002046E11704EB91714FEAA10AE11704EB40
:1006A00091718910A4EB8101CFB2042000EBC70047
:1006B000C7B22846FFF7D4FFC5F1040008FA00F6D8
:1006C0000F20284100EA0900064306F00F06202CFF
:1006D0000CDA904800684FF0010101FA04F140EA99
:1006E00001004FF0E021C1F800010DE08A480068E8
:1006F000A4F120014FF0010202FA01F240EA0200E7
:100700004FF0E021C1F80401844850F82A0006FAAD
:1007100007F140EA0100814941F82A00BDE8F0876D
:1007200070B504460B46CE1701EB9676B010CE1787
:1007300001EB9676B610A1EB8606B606350E784B21
:100740009B6943F00103764EB3614FEAB63353F829
:1007500020300F26AE40B343724E46F82030334669
:1007600053F8203004FA05F633436E4E46F8203035
:100770006D4B1E6801238B401E436B4B1E6012F0B5
:10078000010F08D0684B0C331B6801268E403343A1
:10079000654E0C36336012F0020F08D0624B0833FE
:1007A0001B6801268E4033435F4E0836336070BDB0
:1007B00000B500205A490861C86014204861002033
:1007C0008861C8610846006840F00100086008467A
:1007D00040685649084052494860084600685449F4
:1007E00008404F4908600846006820F480200860EF
:1007F0000846406820F4FE00486000208860002120
:100800004FF00060FFF726FF00BD10B53F480830ED
:10081000006840F004003D49083108604048C06964
:1008200040F080503E49C8614248406840F48070C2
:10083000404948600846006840F0040008600846E7
:10084000006840F002000860FFF7A4FC10BD3048CB
:10085000001D2E49091D0860704701464906304AAF
:10086000926942F001022E4B9A612E4A083A526870
:1008700022F0E0622B4B083B5A601A4652680A434A
:100880005A60704730B504460025FFF791FF2448B1
:10089000006840F480302249086000BF20480068AA
:1008A000400CFBD04FF480601D494860A01EC4B2CC
:1008B0000846406840EA844048600846406840F482
:1008C000803048601C48006840F032001A490860D7
:1008D0001348006840F080701149086000BF10485C
:1008E0000068400EFBD00E48406840F002000C4902
:1008F000486005E00A484068C0F3870505F0030535
:10090000022DF7D130BD000080FFFF1F08ED00E091
:100910000000FA0500E100E004E100E000E400E08E
:100920000010024008000140000401400000FFF8F0
:10093000FFFFF6FE007000400020024070470000FC
:100940000FB4044910B503AA029800F0D7F810BC00
:100950005DF814FB0C0000202DE9F04104460E4622
:1009600000200AE0E1682046884738B3252806D0F1
:10097000D4E901219047206A401C2062F2E7E16837
:10098000204600278847050018D0A5F14100192806
:1009900002D820354FF400673246294620462760AA
:1009A000FFF7DEFB40B1012804D0F61D26F0070654
:1009B0000836D7E7361DD5E72846D9E7206ABDE8CF
:1009C000F08100002DE9F0410746002510687529E7
:1009D000394616A411D0AFF30080002803DAC0F125
:1009E000000013A407E039688A0701D511A402E0CA
:1009F000490704D510A4012501E0AFF300800021D0
:100A00000A2307F1240607E0B0FBF3F203FB120010
:100A1000303070541046491C0028F5D12B46224630
:100A20003846BDE8F04100F00DB8000000000000BD
:100A30002D0000002B0000002000000070477047D0
:100A4000704770472DE9F0470D4604469246994697
:100A500000F124080168880604D5E06921F010013E
:100A6000216000E00120A84202DDA0EB050700E0C4
:100A70000027A16907EB050202EB0900A1EB0000CA
:100A8000A0612068C00602D42046AFF30080002693
:100A900008E0D4E901211AF806009047206A401CBA
:100AA000761C20624E45F4DB2068C0060AD520463D
:100AB000AFF3008006E0D4E9012130209047206A9E
:100AC000401C2062381EA7F10107F4DC07E0D4E9DE
:100AD000012118F805009047206A401C2062281E5A
:100AE000A5F10105F3DC2046AFF300802068000685
:100AF00002D50220BDE8F0870120FBE7074B70B567
:100B00000C467B4400F011F80546204600F020F822
:100B100010B14FF0FF3070BD284670BD35FBFFFFB0
:100B200001694A1C02610878704700B58FB0CDE9B1
:100B300001310021059105497944CDE903101146A1
:100B40006846FFF709FF0FB000BD0000E5FFFFFF9B
:100B5000C06800F080007047754600F029F8AE4686
:100B600005006946534620F00700854618B020B5B9
:100B7000FFF71EFBBDE820404FF000064FF00007D6
:100B80004FF000084FF0000B21F00701AC46ACE835
:100B9000C009ACE8C009ACE8C009ACE8C0098D46A2
:100BA00070470446AFF300802046FFF7EDFA0000DF
:100BB00000487047100100200048704714010020D1
:100BC00090EA010F48BF81F0004100F13682421ADD
:100BD0003CBF801A89184FEAD0524FF07F4C1CEA74
:100BE000410FA2EBD15318BF9CEA026F00F03B808B
:100BF0004FF0004C4CEA00204CEA012121FA03FCA2
:100C000010EB0C0C1ED202F1FF325FEA1C2040EB0D
:100C1000C25038BF70471CF07F0F4FEA400C18BF1E
:100C2000BCF17F4F38BF7047C3F12003994008BF24
:100C300020F00100BCF17F4F38BF7047A0F1C040E9
:100C400000F0E4B94FEA3C00000A40EBC25028BF74
:100C50001CF0FF0F4FEA400CE6D018BFBCF17F4FED
:100C600038BF7047EAE79CEA026F05D010EA5C0FD4
:100C700008BF00F00040704710B500F07AF900BFDF
:100C800064FBBE3E4FF47F0C1CEAD0121EBF1CEA70
:100C9000D11392EA0C0F93EA0C0F00F0858090EAD2
:100CA000010F48BF42F4807240F4000C41F4000090
:100CB0002CF07F4120F07F4000B58142A2EB03027F
:100CC0000FF2081CACEB504EC0F100009EF800E0A3
:100CD0004FEA4E0E00FB0EFC38BF49004FEA2C1CB9
:100CE00002F5FA020CFB0EF34FEACE1E4FEA112C6E
:100CF0004FEAC1210EEB635E42EB22420EFB0CFC7D
:100D00004FEA1C5300FB03114FEA112C4FEA01314B
:100D10000EFB0CFC4FEADC4C00FB0C11C14228BF5F
:100D200009184CEB03335DF804EB10EB410143EB86
:100D3000C250B2F57C0F38BF704729D512F0F00FC2
:100D40001CBF00F1C04000F000407047008182836A
:100D50008485868788898B8C8D8E8F9192939596CA
:100D600097999A9C9D9FA0A2A3A5A7A8AAACAEB054
:100D7000B2B3B5B7B9BCBEC0C2C5C7C9CCCED1D459
:100D8000D7D9DCDFE2E6E9ECF0F3F7FAFE00000089
:100D90004FEA400C0CF1807CBCF17E4F28BF7047BD
:100DA000B0F1C04000F032B990EA010F0CEAD11363
:100DB00048BF42F48072624538BF634507D213F4DE
:100DC0007F0F16D080EA010000F00040704710B598
:100DD00000F0CFF8097EFC3E00F005B880EA010083
:100DE00000F00040704780EA010000F0004000F091
:100DF0000DB912F47F0F04BF0248704780EA01006A
:100E000000F004B90000C07FC10DD1F19E0206DBE5
:100E10004FEA002343F0004323FA02F070470042F8
:100E200007D54FEA4001B1F1FE4F02D24FF000006A
:100E3000704710B500F09DF849922480002070475B
:100E40006FEA200070470000B0FA80F310FA03F256
:100E5000C3F19D030AD0D90501EB1220530638BF18
:100E6000704700F1010008BF20F00100704700004A
:100E70004FF47F0C1CEAD0121EBF1CEAD11392EA79
:100E80000C0F93EA0C0F00F0478090EA010F48BF67
:100E900042F480724FF0004C4CEA00204CEA0121F1
:100EA00002EB0302A0FB0113A2F50002002918BF08
:100EB00043F001035B0028BF4FEA330342EB2242B9
:100EC0005FEA132C4CEBC2502EBFBCEB436FB2F564
:100ED0007C0F70474FEA036CBCF1004F08BF20F055
:100EE0000100B2F57C0F38BF70470BD582F0FF02CE
:100EF00012F5803FC8BF704700F1C040D8BF00F076
:100F00000040704700F5000C5FEA4C0C48BF70478A
:100F1000B0F1C04000F07AB890EA010F0CEAD113AA
:100F200048BF42F48072624538BF634504D280EA0C
:100F3000010000F00040704710B500F01AF800BF43
:100F40008900013E00F007B800F009B85FEA410CE3
:100F50005FEA1C6C08D080EA010000F057B85FEA35
:100F6000400C5FEA1C6CF6D14FF00040A0F5800009
:100F700070470EF1020E2EF0030E5EF8044B244271
:100F800004D44FEA4102B2F17F4F11D84FEA400337
:100F9000B3F17F4F0CD80ED14FEAD07CB2F17F4F26
:100FA0000CEB4C0C0CF1020C08BF4CEBD17C04E0B8
:100FB0004FF0080C01E04FEAD17C0CEB4C0324FA13
:100FC00003F404F00704B4F1040C06D20EEB840C15
:100FD000BDE810404CF0010C6047DFE80CF007085A
:100FE00002024FF00040A0F5800010BD084642000C
:100FF00018BFD2F1807288BF00F0004010BD10B55C
:10100000FFF7DAFD4FF00001016010BDFF2141EA5A
:10101000D050C005704780F0004090EA010F7FF586
:10102000D6AD81F0004100F008B8000090EA010F51
:1010300048BF81F000413FF5CAAD421A04D882F0A2
:101040000042A0EB020011444FEAD0524FF07F4C17
:101050001CEA410FA2EBD15318BF9CEA026F4AD0A1
:101060004FF0004C4CEA00204CEA012121FA03FC2D
:10107000B0EB0C0C0FD412F0FE0F36D05FEA4C0030
:101080001DD5001240EBC25038BF70471CF03F0F17
:1010900018BF70470BE0A2F101025FEA1C2040EB91
:1010A000C25038BF70471CF07F0F18BF7047C3F1A4
:1010B0002003994014BF401E20F0010070478008B3
:1010C0004FEA122308BF7047B0FA80FCA2EB0C0273
:1010D000CCF1280C60FA0CF093EA122F04BF00EB5D
:1010E000C25070474FEAC3707047130A5FEADC10C2
:1010F00008BF7047F6E79CEA026F04D010EA5C0F65
:1011000008BF0020704710B5FFF733FF40DFF63E01
:1011100081F00040704700003811000800000020F6
:1011200010000000280100084811000810000020ED
:10113000600700004401000800000000000055782E
:08114000620000000000000045
:04000005080000ED02
:00000001FF
