:020000040800F2
:1000000090070020990100089D0100089F01000849
:10001000A1010008A3010008A501000800000000DC
:10002000000000000000000000000000A701000820
:10003000A901000800000000AB010008AD010008A4
:10004000AF010008AF010008AF010008AF010008D0
:10005000AF010008AF01000817030008AF01000856
:10006000AF010008AF010008AF010008AF010008B0
:10007000AF010008AF010008AF010008AF010008A0
:10008000AF010008AF010008C1030008AF0100087C
:10009000AF010008AF010008AF010008AF01000880
:1000A000AF010008AF010008AF010008AF01000870
:1000B000A9030008AF010008AF010008AF01000864
:1000C000AF010008AF010008AF010008AF01000850
:1000D000AF01000871030008AF010008AF0100087C
:1000E000AF010008AF010008AF01000800F002F8FE
:1000F00000F041F80AA090E8000C82448344AAF181
:100100000107DA4501D100F036F8AFF2090EBAE87E
:100110000F0013F0010F18BFFB1A43F0010318473B
:100120007413000094130000103A24BF78C878C1FB
:10013000FAD8520724BF30C830C144BF04680C60ED
:10014000704700000023002400250026103A28BF35
:1001500078C1FBD8520728BF30C148BF0B60704739
:10016000752900F0ED85002070471FB501F005F9F5
:100170001FBD10B510BD00F0ADFE1146FFF7F5FF35
:1001800000F076F800F0CBFE03B4FFF7F2FF03BCFB
:1001900000F0AAF930BF000008480047FEE7FEE77C
:1001A000FEE7FEE7FEE7FEE7FEE7FEE7FEE7FEE727
:1001B00003480449044A054B70470000ED0000085D
:1001C0009001002090070020900300209003002061
:1001D0004FF0E021096921F004014FF0E0221161A4
:1001E000C21700EB5272D2101F4B1A7019460978D1
:1001F0004FF47A7251431D4A1180704701461B4AE1
:1002000012884A434FF0E0235A6100229A6101228A
:100210001A6100BF4FF0E022106910F0010F02D008
:1002200010F4803FF6D000224FF0E0231A619A616B
:10023000704701460C4A12784A434FF0E0235A6156
:1002400000229A6101221A6100BF4FF0E02210697A
:1002500010F0010F02D010F4803FF6D000224FF0D2
:10026000E0231A619A61704700000020020000201C
:100270001FB5092000F060FA00F0BAFA4820FFF735
:10028000A7FF4FF4E131482000F02AFC44F250610E
:10029000962000F0E9FA4FF4E161642000F022FBBF
:1002A0004FF480714FF6FF7000F0E4FB00F0CCFAE1
:1002B00000F071FC4420010708873420644908805D
:1002C00000206449086025E063A000F0F7FC6C485A
:1002D00000886C4909886C4A12886C4B1B88CDE9F0
:1002E0000032CDE902106A4803886A4802886A48E9
:1002F00001886AA000F0E2FC6EA000F0DFFC6E480E
:10030000006808B9012000E000206B4908606B48D4
:10031000FFF78FFFD8E70120694908606948006846
:1003200001280CD16848007848B96848008840F036
:1003300001006649088001206349087017E06148A0
:100340000068A0B960480078012810D15F48008893
:1003500000F0FE005D4908805C4824300088484970
:100360000880002059492431088057490870704797
:100370005749098811F0200F15D05549091D0988E2
:10038000C8B25449097871B953490A780978491CA7
:10039000514B19705149885419460978FF2902D1E7
:1003A00000211A46117070474FF08040008A4FF0CC
:1003B0008040008A20F001004FF0804108827047A1
:1003C00047480078072835D2DFE800F034040C14E1
:1003D0001C242C00434800682F4908800020414914
:1003E000086027E03F4800682A49088000203D490E
:1003F00008601FE03B480068254908800020394913
:10040000086017E037480068204908800020354917
:1004100008600FE0334800681B490880002031491C
:10042000086007E02F4800681649088000202D4921
:10043000086000BF00BF2A480078401C28490870A7
:1004400008460078072801D1012008707047000095
:100450003808004094812142616463783109616405
:1004600063783209616463783309616463783409BD
:100470004779726F0942617474096563686F0A0095
:1004800006000020160000201400002012000020AA
:10049000100000200E0000200C000020257509250A
:1004A00075092575092575092575092575092575A8
:1004B000000000000A000000B4012242A0860100F2
:1004C00014040140008121420A0000200004004081
:1004D0000038014004000020050000202C0000200E
:1004E000080000204C240140014600BF704700BFB7
:1004F000044A128812F0400FFAD0C2B2014B1B1D01
:100500001A80704700380140AC4A0A400243AC4BA5
:100510001A6070470146072323EA01021202A84B22
:100520001B1D18684FF6FF031840A64B18431043D5
:10053000A34B1B1D186070472DE9F0478046894684
:1005400014461D462046E11704EB91714FEAA10ABB
:10055000E11704EB91718910A4EB8101CFB2042063
:1005600000EBC700C7B22846FFF7D4FFC5F104006F
:1005700008FA00F60F20284100EA0900064306F0B9
:100580000F06202C0CDA904800684FF0010101FAA8
:1005900004F140EA01004FF0E021C1F800010DE054
:1005A0008A480068A4F120014FF0010202FA01F22A
:1005B00040EA02004FF0E021C1F80401844850F8FD
:1005C0002A0006FA07F140EA0100814941F82A00B1
:1005D000BDE8F08770B504460B46CE1701EB967662
:1005E000B010CE1701EB9676B610A1EB8606B606D4
:1005F000350E784B9B6943F00103764EB3614FEAA9
:10060000B63353F820300F26AE40B343724E46F84F
:100610002030334653F8203004FA05F633436E4E4B
:1006200046F820306D4B1E6801238B401E436B4BF8
:100630001E6012F0010F08D0684B0C331B680126B6
:100640008E403343654E0C36336012F0020F08D0F3
:10065000624B08331B6801268E4033435F4E0836D9
:10066000336070BD00B500205A490861C86014208D
:10067000486100208861C8610846006840F00100B8
:100680000860084640685649084052494860084694
:100690000068544908404F4908600846006820F443
:1006A000802008600846406820F4FE004860002072
:1006B000886000214FF00060FFF726FF00BD10B5F5
:1006C0003F480830006840F004003D4908310860A8
:1006D0004048C06940F080503E49C8614248406887
:1006E00040F48070404948600846006840F00400CB
:1006F00008600846006840F002000860FFF74AFD05
:1007000010BD3048001D2E49091D08607047014684
:100710004906304A926942F001022E4B9A612E4AF4
:10072000083A526822F0E0622B4B083B5A601A46A6
:1007300052680A435A60704730B504460025FFF7F7
:1007400091FF2448006840F480302249086000BFCF
:1007500020480068400CFBD04FF480601D49486081
:10076000A01EC4B20846406840EA8440486008467B
:10077000406840F4803048601C48006840F0320017
:100780001A4908601348006840F0807011490860F9
:1007900000BF10480068400EFBD00E48406840F093
:1007A00002000C49486005E00A484068C0F387052C
:1007B00005F00305022DF7D130BD000080FFFF1FBB
:1007C00008ED00E00000FA0500E100E004E100E0CF
:1007D00000E400E000100240080001400004014075
:1007E0000000FFF8FFFFF6FE00700040002002400E
:1007F000FE48806940F01000FC4988610846806925
:1008000040F0080088610846806940F00400886173
:10081000F748F8490860F848091F0860F748F849A0
:100820000860F848091F0860F4483330F64948600A
:100830004FF044300860F2480830006840F0800013
:10084000EF4908310860704710B50220FFF75FFFDD
:10085000032200210120FFF7BDFE02230622012111
:100860000846FFF769FE10BDE04AD26942F0040273
:10087000DE4BDA61E24A121F126822F07042E04B4E
:100880001B1F1A601A46126842F030421A60DC4A96
:100890000832126842F08002D94B08331A60DB4AF2
:1008A0001080121F1180D94A143A128842F4E04293
:1008B000D64B143B1A801A46128842F400621A8002
:1008C000D24A0C3A128842F01002D04B0C3B1A80EC
:1008D0008022CE4B2C3B1A801A46128842F001022D
:1008E0001A807047C14AD26942F00102BF4BDA61F7
:1008F000C04A0832126842F00202BE4B08331A6046
:100900004FF0804290851185128B42F4E0424FF007
:1009100080431A831A46128B42F400621A831A46E5
:10092000128C42F010021A8480221A80D20512889A
:1009300042F001021A807047AC4AD26942F00102CB
:10094000AA4BDA61AB4A0832126842F00202A94BA4
:1009500008331A604FF0804290851185128B42F067
:1009600070024FF080431A831A46128B42F008023D
:100970001A831A46128C42F001021A8480221A80CD
:10098000D205128842F001021A80704770B5054600
:100990000C469648C06940F008009449C8619C48DC
:1009A0000580001F04809A482038008840F001002C
:1009B0009749203908800846008840F040000880A8
:1009C00093482C38008840F0010091492C39088068
:1009D00002231E2219461846FFF7AEFD70BD70B502
:1009E00005460C468148C06940F010007F49C86147
:1009F000884885850485808940F001008549888183
:100A00000846808940F0400088810846008840F010
:100A10000100088002231E2219461846FFF78CFDAC
:100A200070BD70B505460C467048C06940F00400C2
:100A30006E49C86175480580001F048073482038DE
:100A4000008840F00100714920390880084600887C
:100A500040F0400008806D482C38008840F00100CC
:100A60006A492C39088002231E2203211846FFF709
:100A700063FD70BD70B505460C465C48C06940F02A
:100A800002005A49C86164480580001F048002239F
:100A90001D2204210320FFF74FFD70BD70B50546F0
:100AA0000C465248C06940F001005049C8618804B2
:100AB00085850485808940F0010089048881084685
:100AC000808940F0400088810846008840F001009D
:100AD000088002231D2204211846FFF72DFD70BD5A
:100AE0002DE9F05F05460E46300100F06BFB8146B4
:100AF0004A4905FB01F000F065FB8246494600F0DB
:100B00007FFA0746384600F03DFB84B2204600F0ED
:100B100059FB8346394600F03CFC82464FF0834146
:100B200000F064FB814600F02DFB8046240104EBBD
:100B3000080084B22D48806940F004002B49886188
:100B40000846806940F4804088610846C06840F4E7
:100B50008040C8600846C06820F48040C8603048C3
:100B60000480001D008843F20C4108432C49091DF4
:100B700008800846008840F4807008800846008895
:100B800040F0200008800223252203210846FFF7B9
:100B9000D3FCBDE8F09F10B51448806940F0040014
:100BA000124988610846806940F4007088610846EF
:100BB000C06840F40070C8600846C06820F4007047
:100BC000C8600846406820F44040486008464068D5
:100BD00040F400404860134800684AF6200108438A
:100BE00010490860081D00681EE000000010024067
:100BF000B118011004080140100000401144141104
:100C0000040C0140181431B3001001402C080040BE
:100C10002C0C0040001000402C04004040420F000B
:100C2000083801400424014040F4B010091D086058
:100C30001E48006840F4A0001C4908601B480830AA
:100C400000681B49084319490831086019481749C9
:100C50001C39086015482438006840F00100134929
:100C6000243908600846006840F00800086000BFAA
:100C70000E482438006810F0080FF9D10B482438CA
:100C8000006840F0040009492439086000BF0748A3
:100C90002438006810F0040FF9D102231222032136
:100CA0000420FFF749FC10BD704700002C240140D0
:100CB000400C520C82240900704700000FB4044914
:100CC00010B503AA029800F0D7F810BC5DF814FB29
:100CD000280000202DE9F04104460E4600200AE0DD
:100CE000E1682046884738B3252806D0D4E9012199
:100CF0009047206A401C2062F2E7E1682046002706
:100D00008847050018D0A5F14100192802D82035E0
:100D10004FF400673246294620462760FFF720FA45
:100D200040B1012804D0F61D26F007060836D7E7A3
:100D3000361DD5E72846D9E7206ABDE8F0810000D6
:100D40002DE9F0410746002510687529394616A49B
:100D500011D0AFF30080002803DAC0F1000013A423
:100D600007E039688A0701D511A402E0490704D5D4
:100D700010A4012501E0AFF3008000210A2307F150
:100D8000240607E0B0FBF3F203FB1200303070548E
:100D90001046491C0028F5D12B4622463846BDE8AE
:100DA000F04100F00DB80000000000002D00000030
:100DB0002B0000002000000070477047704770470C
:100DC0002DE9F0470D4604469246994600F1240865
:100DD0000168880604D5E06921F01001216000E077
:100DE0000120A84202DDA0EB050700E00027A16971
:100DF00007EB050202EB0900A1EB0000A0612068EF
:100E0000C00602D42046AFF30080002608E0D4E9F3
:100E100001211AF806009047206A401C761C2062C7
:100E20004E45F4DB2068C0060AD52046AFF30080AB
:100E300006E0D4E9012130209047206A401C20625E
:100E4000381EA7F10107F4DC07E0D4E9012118F806
:100E500005009047206A401C2062281EA5F101056C
:100E6000F3DC2046AFF300802068000602D50220A4
:100E7000BDE8F0870120FBE7074B70B50C467B44CB
:100E800000F011F80546204600F020F810B14FF0B0
:100E9000FF3070BD284670BD6DF6FFFF01694A1C2A
:100EA00002610878704700B58FB0CDE901310021AB
:100EB000059105497944CDE9031011466846FFF7CD
:100EC00009FF0FB000BD0000E5FFFFFFC06800F0A4
:100ED00080007047754600F029F8AE460500694667
:100EE000534620F00700854618B020B5FFF760F99B
:100EF000BDE820404FF000064FF000074FF000081B
:100F00004FF0000B21F00701AC46ACE8C009ACE89B
:100F1000C009ACE8C009ACE8C0098D46704704467A
:100F2000AFF300802046FFF72FF90000004870471C
:100F30002C010020004870473001002090EA010F8A
:100F400048BF81F0004100F13682421A3CBF801A4E
:100F500089184FEAD0524FF07F4C1CEA410FA2EBA8
:100F6000D15318BF9CEA026F00F03B804FF0004C59
:100F70004CEA00204CEA012121FA03FC10EB0C0C96
:100F80001ED202F1FF325FEA1C2040EBC25038BF94
:100F900070471CF07F0F4FEA400C18BFBCF17F4F29
:100FA00038BF7047C3F12003994008BF20F001000B
:100FB000BCF17F4F38BF7047A0F1C04000F0E4B9EA
:100FC0004FEA3C00000A40EBC25028BF1CF0FF0F64
:100FD0004FEA400CE6D018BFBCF17F4F38BF7047D6
:100FE000EAE79CEA026F05D010EA5C0F08BF00F048
:100FF0000040704710B500F07AF900BF64FBBE3EB8
:101000004FF47F0C1CEAD0121EBF1CEAD11392EAE7
:101010000C0F93EA0C0F00F0858090EA010F48BF97
:1010200042F4807240F4000C41F400002CF07F4147
:1010300020F07F4000B58142A2EB03020FF2081CB2
:10104000ACEB504EC0F100009EF800E04FEA4E0EAF
:1010500000FB0EFC38BF49004FEA2C1C02F5FA02D7
:101060000CFB0EF34FEACE1E4FEA112C4FEAC121C2
:101070000EEB635E42EB22420EFB0CFC4FEA1C536C
:1010800000FB03114FEA112C4FEA01310EFB0CFC5F
:101090004FEADC4C00FB0C11C14228BF09184CEB95
:1010A00003335DF804EB10EB410143EBC250B2F5A2
:1010B0007C0F38BF704729D512F0F00F1CBF00F12C
:1010C000C04000F00040704700818283848586879D
:1010D00088898B8C8D8E8F919293959697999A9CF7
:1010E0009D9FA0A2A3A5A7A8AAACAEB0B2B3B5B766
:1010F000B9BCBEC0C2C5C7C9CCCED1D4D7D9DCDF3C
:10110000E2E6E9ECF0F3F7FAFE0000004FEA400CEB
:101110000CF1807CBCF17E4F28BF7047B0F1C0401D
:1011200000F032B990EA010F0CEAD11348BF42F443
:101130008072624538BF634507D213F47F0F16D023
:1011400080EA010000F00040704710B500F0CFF8D1
:10115000097EFC3E00F005B880EA010000F0004086
:10116000704780EA010000F0004000F00DB912F471
:101170007F0F04BF0248704780EA010000F004B905
:101180000000C07FC10DD1F19E0206DB4FEA0023B3
:1011900043F0004323FA02F07047004207D54FEABC
:1011A0004001B1F1FE4F02D24FF00000704710B580
:1011B00000F09DF849922480002070476FEA2000DB
:1011C00070470000B0FA80F310FA03F2C3F19D03F8
:1011D0000AD0D90501EB1220530638BF704700F141
:1011E000010008BF20F00100704700004FF47F0CA1
:1011F0001CEAD0121EBF1CEAD11392EA0C0F93EA2C
:101200000C0F00F0478090EA010F48BF42F4807253
:101210004FF0004C4CEA00204CEA012102EB0302A3
:10122000A0FB0113A2F50002002918BF43F001033F
:101230005B0028BF4FEA330342EB22425FEA132CE4
:101240004CEBC2502EBFBCEB436FB2F57C0F704726
:101250004FEA036CBCF1004F08BF20F00100B2F56B
:101260007C0F38BF70470BD582F0FF0212F5803F2C
:10127000C8BF704700F1C040D8BF00F000407047C1
:1012800000F5000C5FEA4C0C48BF7047B0F1C0405D
:1012900000F07AB890EA010F0CEAD11348BF42F48B
:1012A0008072624538BF634504D280EA010000F0D5
:1012B0000040704710B500F01AF800BF8900013EE9
:1012C00000F007B800F009B85FEA410C5FEA1C6C57
:1012D00008D080EA010000F057B85FEA400C5FEAEE
:1012E0001C6CF6D14FF00040A0F5800070470EF165
:1012F000020E2EF0030E5EF8044B244204D44FEA93
:101300004102B2F17F4F11D84FEA4003B3F17F4F52
:101310000CD80ED14FEAD07CB2F17F4F0CEB4C0CC5
:101320000CF1020C08BF4CEBD17C04E04FF0080C30
:1013300001E04FEAD17C0CEB4C0324FA03F404F0F7
:101340000704B4F1040C06D20EEB840CBDE8104087
:101350004CF0010C6047DFE80CF0070802024FF088
:101360000040A0F5800010BD0846420018BFD2F131
:10137000807288BF00F0004010BD10B5FFF7DAFDA5
:101380004FF00001016010BDFF2141EAD050C005BF
:10139000704780F0004090EA010F7FF5D6AD81F0F4
:1013A000004100F008B8000090EA010F48BF81F04A
:1013B00000413FF5CAAD421A04D882F00042A0EBCA
:1013C000020011444FEAD0524FF07F4C1CEA410F0B
:1013D000A2EBD15318BF9CEA026F4AD04FF0004CE9
:1013E0004CEA00204CEA012121FA03FCB0EB0C0C82
:1013F0000FD412F0FE0F36D05FEA4C001DD500125C
:1014000040EBC25038BF70471CF03F0F18BF704709
:101410000BE0A2F101025FEA1C2040EBC25038BF92
:1014200070471CF07F0F18BF7047C3F1200399402D
:1014300014BF401E20F00100704780084FEA1223BD
:1014400008BF7047B0FA80FCA2EB0C02CCF1280C6C
:1014500060FA0CF093EA122F04BF00EBC250704701
:101460004FEAC3707047130A5FEADC1008BF704789
:10147000F6E79CEA026F04D010EA5C0F08BF002078
:10148000704710B5FFF733FF40DFF63E81F00040B4
:1014900070470000B4140008000000202C00000079
:1014A00028010008E01400082C0000206407000058
:1014B00044010008000000000000557801620100AE
:1014C000000000000000000000000000000000001C
:1014D000000000000000000000000000000000000C
:04000005080000ED02
:00000001FF
